:03000000020F6884
:0C0F6800787FE4F6D8FD758152020FAFCF
:100D6D001F1C1F1E1F1E1F1F1E1F1E1F416C617289
:100D7D006D3A00204C6F676F3A002A2A2A2A2A3FC3
:100D8D003F3A3F3F2A2A2A2A2A2A002A2A2A2A2A91
:100D9D00416C61726D2A2A2A2A2A2A000708064008
:100DAD0005A0054704B0043703C00D0F10100F1038
:100DBD000D0C0C0D0F10100F100D0D0D0F10100F41
:100DCD00100D0C0C0F0D0C0D0C0B0C06060C0F0D55
:100DDD000C06060F0D0C0D0C0B0C060506FF080876
:100DED0008040408080C040808080404081008087E
:100DFD000808040408080C0408080404040408186E
:100E0D000818081808100808080404040408100835
:010E1D0020B4
:101212000128021113323031312D30352D30382072
:1012220036204D543100112A2031313A30383A32C9
:1012320033202033305E432000012400043E4F4619
:0A1242004600060D30373A31300047
:101282007F8B12000EFE7F051212947F0D12000E4C
:021292007F05D6
:10129400E4FDFCC3ED9FEC9E5015E4FBFA0BBB0090
:0F12A400010AEB64784A70F50DBD00010C80E47F
:0112B3002218
:09000E00C2A78F80D2A5C2A52271
:06133600740D29F8E6FF2A
:09133C00D2A78F80D2A5C2A52220
:1012B400C2A67F0F7E001212947F3812128F7F0C09
:0B12C40012128F0F12000E1F02129476
:1011D5007F8012000E7F057E00121294E4F97413CD
:1011E5001213387F057E0012129409B910F07FC0E2
:1011F50012000E7F057E00121294E4F9742A121370
:0C120500387F057E0012129409B910F029
:0112110022BA
:100E1E007F8012000E7F057E00121294E4F9E99095
:100E2E000D7993FF12133C7F057E0012129409B9BF
:100E3E0006ECE4F9743E1213387F057E001212940C
:100E4E0009B903F07F2012133C7F057E0012129425
:100E5E00E4F91213367F057E0012129409B905F2D9
:100E6E007F2012133C7F057E001212947FC0121257
:100E7E008FE4F9E9900D8093FF12133C7F057E00FD
:100E8E0012129409B906ECAF2012133C7F057E00B6
:100E9E00121294AF2112133C7F05121294AF22123C
:100EAE00133C7F05121294E4F97F2012133C7F0548
:090EBE007E0012129409B907F03C
:010EC7002208
:1010E5007F8012000E7F057E00121294E4F9E990CC
:1010F5000D8793FF12133C7F057E0012129409B9E8
:1011050005ECE4F91213367F057E0012129409B935
:1011150005F2790AE9900D8793FF12133C7F057E4E
:101125000012129409B910EC7FC012000E7F057EE3
:1011350000121294E4F9E9900D9893FF12133C7F85
:0A114500057E0012129409B910ECA7
:01114F00227D
:10124D00E4F552D296755101D551FDC2967551FAFC
:10125D00D551FDD29675511ED551FD20960C755167
:10126D00D2D551FD3096F4755201E55260D27551CB
:04127D00F0D551FD5A
:01128100224A
:101071007F037E08E9C313F9C2967D01DDFED29696
:101081007D04DDFE3096034301807D19DDFEDEE443
:10109100BF0302AB01BF0202AA01BF0102890CDF3B
:1010A100D1E4F547EA54F860127547016302FF6322
:1010B10003FFEB04FBD394FF40010AEB540F7508C7
:1010C10000F509AE08FF7C027D71120C8D8E458FF3
:1010D10046854508854609EBC4540FFBEAC454F024
:0310E1004BF50AC2
:0110E40022E9
:1012CF007E08C2967D06DDFEEF1392967D19DDFE38
:0812DF00EFC313FFD296DEEA13
:0112E70022E4
:1011940012124D7FCC1212CF7F441212CF7F057EE4
:1011A4000012129412124D7FCC1212CF7FBE121273
:1011B400CF121071E50A75F00A84E5F02430F53693
:1011C400E50A75F06484E5F075F00A842430F53599
:0111D40022F8
:0612E800C2A2C2A4D2A2C2
:0F12EE00EF7F08A2E092A3C2A4D2A4C313DFF43F
:0112FD0022CE
:10131400E4FFC313D2A4C2A4A2A392E70FBF08F2AE
:01132400FFC9
:0113250022A5
:0712FE001213057D807F8EB5
:0F130500AE051212E8AF061212EEC2A2D2A42257
:051326001211D57F81CA
:0A132B001212E8121314C2A2D2A499
:011335002295
:100EC8007F8112132B8F257F8312132B8F297F8508
:100ED80012132B8F3B7F8712132B8F447F8912139A
:100EE8002B8F437F8D12132B8F267F8B12132B8F03
:100EF8003DE525540F2430F532E525C4540F243040
:100F0800F531E529540F2430F52FE529C4540F2471
:100F180030F52EE53B540F2430F52CE53BC4540F37
:100F28002430F52BE544540F2430F51CE544C45413
:100F38000F2430F51BE543540F2430F519E543C45D
:100F4800540F2430F518E526540F2430F516E526FD
:100F5800C4540F2430F515E53D540F2430F51E22F6
:03000B0002134598
:09134500854A8C854B8AB2943272
:03001B00020003DD
:03000300053C3287
:10001E00E524640160030200AE7F8312128420B3D4
:10002E00397F0A12129420B32E0516E516D3943991
:10003E00400F7516300515E515D394394003751527
:10004E00301213268F42E542C4540F75F00AA4FFF6
:10005E00E542540F2FF54230B3FD30B40302056A6A
:10006E007F0A7E0012129420B42E1516E516C39444
:10007E0030500F7516391515E515C39430500375AC
:10008E0015391213268F42E542C4540F75F00AA497
:10009E00FFE542540F2FF54230B40302056A80F893
:1000AE00E524640260030201587F8612128420B395
:1000BE00467F0A12129420B33B0519E519D39439E1
:1000CE00400AE518B430057519300518E519D394B2
:1000DE0032400BE518B4310675193175183012130C
:1000EE00268F42E542C4540F75F00AA4FFE5425430
:1000FE000F2FF54230B3FD30B40302056A7F0A7E3E
:10010E000012129420B43B1519E519C39430500A0D
:10011E00E518B431057519391518E519C394315020
:10012E000BE518B430067519327518311213268F77
:10013E0042E542C4540F75F00AA4FFE542540F2F56
:10014E00F54230B40302056A80F8E52464036003C7
:03015E0002027A20
:1001610075F00AE518A42519F582E435F0F583E563
:1001710082245CF582E583340BF583E493F5517FAA
:100181008912000E7E0012128820B3687F0A1212B3
:100191009420B35D051CE51CD39439400F751C30C8
:1001A100051BE51BD394394003751B30E51B24D097
:1001B100FFE434FFFE7C007D0A120C8DE51C24D087
:1001C100FDEC34FFCD2FFFED3EFED3EF9551748052
:1001D100F86E984006751C31751B301213268F423C
:1001E100E542C4540F75F00AA4FFE542540F2FF500
:1001F1004230B3FD30B40302056A7F0A7E00121259
:100201009420B46D151CE51CC39430500F751C3936
:10021100151BE51BC394305003751B39E51B24D016
:10022100FFE434FFFE7C007D0A120C8DE51C24D016
:10023100FDEC34FFCD2FFFED3EFEC3EF9401EE64E4
:100241008094805016E55175F00A84E5F02430F56C
:100251001CE55175F00A842430F51B1213268F42D8
:10026100E542C4540F75F00AA4FFE542540F2FF57F
:090271004230B40302056A80F872
:10027A00E5246404706D12128220B32D7F0A1212D3
:10028A009420B322051EE51ED394374003751E3110
:10029A001213268F42E542C4540F75F00AA4FFE5F3
:1002AA0042540F2FF54230B3FD30B40302056A7F82
:1002BA000A7E0012129420B422151EE51EC3943140
:1002CA005003751E371213268F42E542C4540F7528
:1002DA00F00AA4FFE542540F2FF54230B403020599
:1002EA006A80F8E524640560030203C47FC212121F
:1002FA008420B3687F0A12129420B35D052CE52C82
:10030A00D39439400F752C30052BE52BD394394003
:10031A0003752B30E52B24D0FFE434FFFE7C007DEF
:10032A000A120C8DE52C24D0FDEC34FFCD2FFFED05
:10033A003EFED3EF9417EE648094804006752C300D
:10034A00752B301213268F42E542C4540F75F00AFA
:10035A00A4FFE542540F2FF54230B3FD30B4030237
:10036A00056A7F0A7E0012129420B446152CE52BEA
:10037A0064306016E52CC39430500F752C39152B58
:10038A00E52BC394305003752B39E52BB4300DE5BA
:10039A002CC394305006752C33752B321213268FCA
:1003AA0042E542C4540F75F00AA4FFE542540F2FE8
:1003BA00F54230B40302056A80F8E5246406600356
:1003CA0002049B7FC512128420B3687F0A1212941A
:1003DA0020B35D052FE52FD39439400F752F3005D3
:1003EA002EE52ED394394003752E30E52E24D0FF06
:1003FA00E434FFFE7C007D0A120C8DE52F24D0FD2B
:10040A00EC34FFCD2FFFED3EFED3EF943BEE64803C
:10041A0094804006752F30752E301213268F42E5D0
:10042A0042C4540F75F00AA4FFE542540F2FF54257
:10043A0030B3FD30B40302056A7F0A7E00121294BB
:10044A0020B446152FE52E64306016E52FC394308C
:10045A00500F752F39152EE52EC394305003752E83
:10046A0039E52EB4300DE52FC394305006752F3977
:10047A00752E351213268F42E542C4540F75F00AC1
:10048A00A4FFE542540F2FF54230B40302056A80F7
:10049A00F8E5246407600302056A7FC81212842003
:1004AA00B3687F0A12129420B35D0532E532D39401
:1004BA0039400F7532300531E531D394394003752F
:1004CA003130E53124D0FFE434FFFE7C007D0A128E
:1004DA000C8DE53224D0FDEC34FFCD2FFFED3EFE2E
:1004EA00D3EF943BEE6480948040067532307531C8
:1004FA00301213268F42E542C4540F75F00AA4FF46
:10050A00E542540F2FF54230B3FD20B4537F0A7EE3
:10051A000012129420B4461532E53164306016E5B3
:10052A0032C39430500F7532391531E531C39430E6
:10053A005003753139E531B4300DE532C39430508A
:10054A00067532397531351213268F42E542C45485
:10055A000F75F00AA4FFE542540F2FF54230B4FD9F
:01056A00226E
:1008C500E524640860030209617F8812128420B35D
:1008D5003F7F0A12129420B334E540B44E0B753EA7
:1008E5004F753F467540468009753E20753F4F75EB
:1008F500404E120E1E7F8112132B8F42E542C454C7
:100905000F75F00AA4FFE542540F2FF54230B3FDF1
:1009150030B403020B197F0A7E0012129420B434FE
:10092500E540B44E0B753E4F753F46754046800910
:10093500753E20753F4F75404E120E1E7F81121376
:100945002B8F42E542C4540F75F00AA4FFE54254CB
:100955000F2FF54230B403020B1980F8E524640922
:100965006003020A4012128220B36D7F0A121294AC
:1009750020B362050EE50ED39439400F750E300590
:100985000DE50DD394394003750D30E50D24D0FFE9
:10099500E434FFFE7C007D0A120C8DE50E24D0FDAB
:1009A500EC34FFCD2FFFED3EFED3EF9417EE6480C0
:1009B50094804006750E30750D30120E1E7F811223
:1009C500132B8F42E542C4540F75F00AA4FFE5428C
:1009D500540F2FF54230B3FD30B403020B197F0AD3
:1009E5007E0012129420B44B150EE50D643060168E
:1009F500E50EC39430500F750E39150DE50DC394F2
:100A0500305003750D39E50DB4300DE50EC3943046
:100A15005006750E33750D32120E1E7F8112132B83
:100A25008F42E542C4540F75F00AA4FFE542540F06
:100A35002FF54230B403020B1980F8E524640A60EF
:100A450003020B197F8E12128420B36D7F0A1212D6
:100A55009420B3620511E511D39439400F75113017
:100A65000510E510D394394003751030E51024D0F6
:100A7500FFE434FFFE7C007D0A120C8DE51124D0C5
:100A8500FDEC34FFCD2FFFED3EFED3EF943BEE643E
:100A95008094804006751130751030120E1E7F81CE
:100AA50012132B8F42E542C4540F75F00AA4FFE5DB
:100AB50042540F2FF54230B3FD20B4587F0A7E0013
:100AC50012129420B44B1511E51064306016E5112F
:100AD500C39430500F7511391510E510C39430507B
:100AE50003751039E510B4300DE511C39430500687
:100AF500751139751035120E1E7F8112132B8F4219
:100B0500E542C4540F75F00AA4FFE542540F2FF5D2
:050B15004230B4FD2296
:100B1A00E524640B70797FC612128420B3327F0AEF
:100B2A0012129420B3270520E520D3947A40037546
:100B3A002030120E1E7F8112132B8F42E542C454BD
:100B4A000F75F00AA4FFE542540F2FF54230B3FDAA
:100B5A0030B403020C8C7F0A7E0012129420B42750
:100B6A001520E520C39430500375207A120E1E7F9B
:100B7A008112132B8F42E542C4540F75F00AA4FF69
:100B8A00E542540F2FF54230B403020C8C80F8E58D
:100B9A0024640C70767FC712128420B3327F0A1243
:100BAA00129420B3270521E521D3947A40037521B5
:100BBA0030120E1E7F8112132B8F42E542C4540F4E
:100BCA0075F00AA4FFE542540F2FF54230B3FD3009
:100BDA00B403020C8C7F0A7E0012129420B42715EB
:100BEA0021E521C39430500375217A120E1E7F81AC
:100BFA0012132B8F42E542C4540F75F00AA4FFE585
:100C0A0042540F2FF54220B47980FBE524640D701D
:100C1A00717FC812128420B3327F0A12129420B351
:100C2A00270522E522D3947A4003752230120E1E3C
:100C3A007F8112132B8F42E542C4540F75F00AA428
:100C4A00FFE542540F2FF54230B3FD20B4347F0A3A
:100C5A007E0012129420B4271522E522C394305044
:100C6A000375227A120E1E7F8112132B8F42E542E0
:100C7A00C4540F75F00AA4FFE542540F2FF5423011
:030C8A00B4FD2294
:100FF40020B2417F0A7E0012129420B2340524E507
:1010040024D394074009E524940B5003120E1EE5E3
:1010140024D3940D40037524147F8112132B8F4223
:10102400E542C4540F75F00AA4FFE542540F2FF5AE
:101034004230B2FDE524703420B3317F0AFE12122F
:101044009420B3250528E528D394024003E4F52829
:10105400E5287006D2A0D2A1800FE528B40106C20B
:0D106400A0D2A18004D2A0C2A130B3FD2211
:10056B007537DF1212B47FFF12132BEF64AA70657D
:10057B007FD112132BEF540F2430F5117FD11213AF
:10058B002BEFC4540F2430F5107FD312132BEF54E1
:10059B000F2430F50E7FD312132BEFC4540F2430DE
:1005AB00F50D7FC512132BEF700B753E4F753F4644
:1005BB007540468009753E20753F4F75404E7FC78D
:1005CB0012132B8F207FC912132B8F217FCB12136A
:1005DB002B8F22803BE4FD7F8E1213057F9012132D
:1005EB00057F801213057D277F821213057D207FE7
:1005FB00841213057D097F861213057D057F8812F2
:10060B0013057D117F8C1213057D017F8A1212FE5B
:10061B00D2A0C2A1120FF4E524603A64146036E54F
:10062B0024641560307F8112132B8F48E548C45426
:10063B000F75F00AA4FFE548540F2FF548C39542F8
:10064B005006743C2548F548C3E5489542D3941EA3
:10065B004003752414E524704E121194120EC81227
:10066B0011D5E540644E60030208B9E52B650D60BA
:10067B00030208B9E52C650E60030208B9E52E6587
:10068B001060030208B9E52F651160030208B9E594
:10069B0031643060030208B9E5326430600302084C
:1006AB00B97524150208B9E5246414600302079791
:1006BB00FD7F8E121305E53124D0C454F0FFE532D3
:1006CB0024D02FFD7F80121305E52E24D0C454F0C7
:1006DB00FFE52F24D02FFD7F82121305E52B24D0AD
:1006EB00C454F0FFE52C24D02FFD7F84121305E5B5
:1006FB001B24D0C454F0FFE51C24D02FFD7F8612A1
:10070B001305E51824D0C454F0FFE51924D02FFDB0
:10071B007F88121305E51524D0C454F0FFE5162489
:10072B00D02FFD7F8C121305E51E24D0FD7F8A127E
:10073B001305E51024D0C454F0FFE51124D02FFD90
:10074B007FD0121305E50D24D0C454F0FFE50E2421
:10075B00D02FFD7FD2121305E540B44604E4FD8093
:10076B00027D017FC4121305AD207FC6121305ADA8
:10077B00217FC8121305AD227FCA1213057DAA7FF4
:10078B00FE1212FE7F0C12000E0208B6E524641551
:10079B0060030208B91210E5E4F54D758911D2AF6B
:1007AB00D2A9D2ABE4F53CD28EF54C20B4107F0A23
:1007BB007E0012129420B4030208A630B4FDE54C5F
:1007CB00900DB793FDF470030208A6ED70030208B9
:1007DB006175F00A84E5F025E024A7F582E4340D79
:1007EB00F583E493F54F740193F550EDC3940A50E0
:1007FB000BE55025E0F550E54F33F54FEDD3941451
:10080B00400AE54F13F54FE55013F550AE4FAF507F
:10081B00AB07AA06E4C39BFFE49AFE74019400FDA8
:10082B00E49400FCE4FB7A01F9F81211508F4AAE04
:10083B004FAF50AB07AA06E4C39BFFE49AFE7401CB
:10084B009400FDE49400FCE4FB7A01F9F8121150DA
:10085B00AF038F4BD28CE4F53CE54C900DEB93F54D
:10086B004EE54ED3953C401220B4F67F0A7E001223
:10087B00129430B40520B4E980FBC28C054CE4F52E
:10088B004FF550C3E55094E8E54F9403400302073E
:10089B00B60550E55070EC054F80E8C2AF054DE54D
:1008AB004DC3940250030207A6D294E4F524120020
:0A08BB001E1208C5120B1A02061FD8
:100F740002056BE493A3F8E493A34003F68001F223
:100F840008DFF48029E493A3F85407240CC8C3337E
:100F9400C4540F4420C8834004F456800146F6DF4D
:100FA400E4800B0102040810204080901212E47EB9
:100FB400019360BCA3FF543F30E509541FFEE49342
:100FC400A360010ECF54C025E060A840B8E493A309
:100FD400FAE493A3F8E493A3C8C582C8CAC583CA34
:100FE400F0A3C8C582C8CAC583CADFE9DEE780BEEC
:01124C0000A1
:100C8D00EF8DF0A4A8F0CF8CF0A428CE8DF0A42E7B
:020C9D00FE2235
:10115000C2D5E830E70FB2D5E4C39BFBE49AFAE4CA
:1011600099F9E498F8EC30E717B2D5121186120C11
:10117000DBE4C39BFBE49AFAE499F9E498F8800372
:10118000120CDB30D50DE4C39FFFE49EFEE49DFD11
:04119000E49CFC22BD
:100C9F0075F008758200EF2FFFEE33FECD33CDCC0C
:100CAF0033CCC58233C5829BED9AEC99E58298408F
:100CBF000CF582EE9BFEED9AFDEC99FC0FD5F0D66C
:100CCF00E4CEFBE4CDFAE4CCF9A88222B800C1B996
:100CDF000059BA002DEC8BF084CFCECDFCE5F0CBD4
:100CEF00F97818EF2FFFEE33FEED33FDEC33FCEB0D
:100CFF0033FB10D703994004EB99FB0FD8E5E4F9C8
:100D0F00FA227818EF2FFFEE33FEED33FDEC33FCB4
:100D1F00C933C910D7059BE99A4007EC9BFCE99AA8
:100D2F00F90FD8E0E4C9FAE4CCFB2275F010EF2FED
:100D3F00FFEE33FEED33FDCC33CCC833C810D707ED
:100D4F009BEC9AE899400AED9BFDEC9AFCE899F828
:0E0D5F000FD5F0DAE4CDFBE4CCFAE4C8F922BB
:00000001FF
